:100000000C942A000C9447000C9447000C94470071
:100010000C9447000C9447000C9447000C94D005B6
:100020000C9447000C9447000C9447000C94470034
:100030000C9447000C9447000C9447000C94470024
:100040000C9447000C9447000C9447000C94470014
:100050000C94470011241FBECFE5D8E0DEBFCDBF12
:1000600010E0A0E6B0E0E0E4F6E102C005900D92F9
:10007000AA3EB107D9F725E0AAEEB0E001C01D9273
:10008000A536B207E1F70E9419040C941E0B0C94DC
:10009000000087B1806487B986B1806886B986B16F
:1000A000876086B9089597B1907E97B997B1892BEB
:1000B00087B986B1806486B93699FECF84B195B18F
:1000C0000895EFEEF0E084EF90E091838083138257
:1000D0001282EBEEF0E087EE93E09383828311824D
:1000E0001082A3EFB0E014969C938E931397129610
:1000F000FC93EE93119708950F931F93CF93DF9383
:10010000EC010E94DF078091EA00811105C00E9486
:10011000610081E08093EA00209709F02496CE01E7
:100120000197863E934008F056C0E091EF00F091B1
:10013000F000AFEEB0E002C0DF01FC0182819381EC
:100140008C179D0720F4808191810097A9F780E0AA
:10015000EB3EF80709F442C00D911C9111970C5F1A
:100160001F4F808191818D939C93828193818C1B01
:100170009D0B8930910510F1AF014C0F5D1FDA0125
:1001800013969C938E931297D383C28312962D91CC
:100190003C9113976FEE70E001C0BD01EB01A881A7
:1001A000B98112968D919C91139782179307A8F3AA
:1001B000EA01B983A883DB014D935C9322813381EB
:1001C0008091600090916100821B930B909361007D
:1001D0008093600005C000E010E002C000E010E085
:1001E0000E949F08C801DF91CF911F910F91089540
:1001F0000F931F93CF93DF93009741F1EC018C0194
:10020000045011090E94DF07F80142815381AFEECB
:10021000B0E001C0DF01ED91FC91119722813381A3
:1002200024173507B8F32497F983E8830D931C93BB
:100230008A819B812091600030916100820F931F21
:1002400090936100809360000E949F08DF91CF919E
:100250001F910F91089595B3946095BB882324F462
:1002600095B3906895BB03C095B39F7795BB86FF08
:1002700004C095B3906495BB03C095B39F7B95BBB9
:1002800085FF04C095B3906295BB03C095B39F7D75
:1002900095BB84FF04C095B3906195BB03C095B333
:1002A0009F7E95BB95B3986095BBEFE9FFE03197D2
:1002B000F1F700C0000095B3977F95BBEFE9FFE031
:1002C0003197F1F700C0000083FF04C095B3906838
:1002D00095BB03C095B39F7795BB82FF04C095B3D0
:1002E000906495BB03C095B39F7B95BB81FF04C011
:1002F00095B3906295BB03C095B39F7D95BB80FF7E
:1003000004C085B3806185BB03C085B38F7E85BB88
:1003100085B3886085BB8FE99FE00197F1F700C046
:10032000000085B3877F85BBEFE9FFE03197F1F7E8
:1003300000C000000895CF93DF93EC0103C00E943A
:100340002B01219688818111FACFDF91CF910895F9
:1003500095B39B7F95BB882324F495B3906895BB98
:1003600003C095B39F7795BB86FF04C095B3906497
:1003700095BB03C095B39F7B95BB85FF04C095B328
:10038000906295BB03C095B39F7D95BB84FF04C06D
:1003900095B3906195BB03C095B39F7E95BB95B314
:1003A000986095BBEFE9FFE03197F1F700C00000DE
:1003B00095B3977F95BBEFE9FFE03197F1F700C068
:1003C000000083FF04C095B3906895BB03C095B34C
:1003D0009F7795BB82FF04C095B3906495BB03C023
:1003E00095B39F7B95BB81FF04C095B3906295BB8D
:1003F00003C095B39F7D95BB80FF04C085B380612A
:1004000085BB03C085B38F7E85BB85B3886085BB04
:100410008FE99FE00197F1F700C0000085B3877F67
:1004200085BBEFE9FFE03197F1F700C000000895C8
:1004300084B38C6F84BB83E00E94A8018FE79EE3A6
:100440000197F1F700C0000083E00E94A8018FE748
:100450009EE30197F1F700C0000083E00E94A8012D
:1004600082E00E94A80188E20E94A80181E00E9427
:10047000A80186E00E94A8018CE00E94A8019FEFDD
:1004800029EF80E0915020408040E1F700C000005B
:100490000895FF920F931F93CF93DF93CDB7DEB7ED
:1004A0002A970FB6F894DEBF0FBECDBF6115710558
:1004B0008105910521F480E30E942B0147C0992317
:1004C00054F490958095709561957F4F8F4F9F4F15
:1004D000FF24F39401C0F12C00E015C02AE030E0C5
:1004E00040E050E00E94DD0AE1E0F0E0EC0FFD1F8B
:1004F000E00FF11D07FDFA95605D6083622F732F99
:10050000842F952F0F5F611571058105910531F7D6
:100510001FEF100FFF20C1F0E1E0F0E0EC0FFD1F36
:10052000E00FF11D07FDFA958DE28083102F0CC0BE
:10053000E1E0F0E0EC0FFD1FE10FF11D17FDFA9572
:1005400080810E942B011150112394F72A960FB637
:10055000F894DEBF0FBECDBFDF91CF911F910F91F9
:10056000FF900895FC010396928381832FEF3FEF64
:1005700034832383968385839087878310820895AD
:10058000FC01118610860895CF93DF939C01FB0137
:10059000DC011196CD91DC911297D383C2838C81BB
:1005A0009D81958384838C819D81DC0113967C934E
:1005B0006E9312977D836C8331872087F901808148
:1005C0008F5F8083DF91CF910895CF93DF93EB010D
:1005D000488159814F3F2FEF520721F4FC01A78139
:1005E000B0850DC0DC01139601C0DF011296ED91BC
:1005F000FC9113972081318142175307B0F712966F
:10060000ED91FC911397FB83EA83D583C483BD836B
:10061000AC831396DC93CE93129799878887FC015D
:1006200020812F5F2083DF91CF910895CF93DF93B7
:10063000FC01A085B185C281D381848195819D8390
:100640008C83C481D581828193819B838A83119617
:100650008D919C911297E817F90731F48481958167
:1006600012969C938E931197118610868C918150CF
:100670008C93DF91CF910895C89B04C08BB38064A5
:100680008BBB19C08BB38F7B8BBB80E80E94A8010A
:1006900082E690E00E949B0181B3816081BB81B3BF
:1006A000826081BB82B3816082BB82B38D7F82BB5B
:1006B00080E00E94E60581E090E00E941109DCCF15
:1006C00087B3826087BB87B38E7F87BBB09B04C034
:1006D00088B3826088BB03C088B38D7F88BB81E00C
:1006E00090E00E941109F2CF82E00E9453009C0129
:1006F000220F331F820F931FC92FC695C69580E026
:10070000D82FCD2B21F48BB38F7D8BBB03C08BB344
:1007100080628BBB81E090E00E941109E5CF83E00D
:100720000E9453000197BC01990F880B990B0E94FE
:10073000E40920E030E040E05FE30E94480A0E94C4
:10074000AC096B017C01EB01A297CE01880F991FC8
:10075000C80FD91FCC0FDD1FCC0FDD1FCB35D10546
:1007600014F0CAE5D0E0DD2314F4C0E0D0E0C89B6B
:100770001CC080E80E94A80185E790E00E949B01D0
:10078000B601DD0C880B990B0E94490281B3816090
:1007900081BB81B3826081BB82B3816082BB82B343
:1007A0008D7F82BB8C2F0E94E60581E090E00E9445
:1007B0001109B5CFC1E0CC9B30C080EC0E94A801EC
:1007C00084E890E00E949B01C13071F581B38460A0
:1007D00081BB81B3886081BB82B38B7F82BB82B3D4
:1007E000886082BB88B3886088BB80EC0E94A801C7
:1007F00081E990E00E949B012FE787E996E0215074
:1008000080409040E1F700C0000088B3877F88BB3C
:1008100081E00E94A801C0E007C080EC0E94A8010E
:1008200082E690E00E949B0181E090E00E94110925
:10083000C2CFEF92FF920F930E9418020E944900CC
:100840000E94D3058AB381608ABB8AB382608ABB67
:100850008AB380628ABB8AB380648ABB84B38260B5
:1008600084BB84B3816084BB87B3886087BB87B354
:10087000826087BBE12CF12C05E020E030E044E60B
:1008800050E065EA70E084E793E00E94610720E0B1
:1008900030E044E650E060EB70E08FE893E00E94C7
:1008A000610720E030E044E650E062EC70E08CE369
:1008B00093E00E94610720E030E044E650E06DECF8
:1008C00070E08AED93E00E94610720E030E044E6AA
:1008D00050E069ED70E080E693E00E9461070E94BD
:1008E000B50780E090E00F91FF90EF9008951BBC5A
:1008F0008CE78ABD8BE08EBD89B7806189BF089582
:1009000031E1FC013083319722E220833197A3E368
:10091000A08331976083319770833197108231972C
:1009200060E8608331971082319762E0608331978D
:1009300063E06083319764E06083319765E06083B2
:10094000319766E06083319767E06083319768E0B4
:100950006083319769E06083319760E1608331970C
:100960003083319732E13083319733E130833197EF
:1009700034E13083319735E13083319736E130838C
:10098000319737E13083319738E13083319739E15E
:100990003083319730E23083319731E230833197C1
:1009A0002083319723E2208331974083319750830E
:1009B000319726E22083319727E22083319728E27E
:1009C0002083319729E22083319720E320833197D8
:1009D00021E32083869708950E947704A091630500
:1009E000B0916405CD91CDBFDD91DEBFFF91EF9158
:1009F000DF91CF91BF91AF919F918F917F916F9137
:100A00005F914F913F912F911F910F91FF90EF9028
:100A1000DF90CF90BF90AF909F908F907F906F901E
:100A20005F904F903F902F901F900F900FBE0F90B0
:100A3000089581E008950F920FB6F8940F921F92D7
:100A400011242F923F924F925F926F927F928F92DA
:100A50009F92AF92BF92CF92DF92EF92FF920F934D
:100A60001F932F933F934F935F936F937F938F9336
:100A70009F93AF93BF93CF93DF93EF93FF93A09197
:100A80006305B09164050DB60D920EB60D920E94ED
:100A90005809A0916305B0916405CD91CDBFDD915A
:100AA000DEBFFF91EF91DF91CF91BF91AF919F9109
:100AB0008F917F916F915F914F913F912F911F91F6
:100AC0000F91FF90EF90DF90CF90BF90AF909F90ED
:100AD0008F907F906F905F904F903F902F901F90DE
:100AE0000F900FBE0F9008950F920FB6F8940F92CB
:100AF0001F9211242F923F924F925F926F927F929A
:100B00008F929F92AF92BF92CF92DF92EF92FF921D
:100B10000F931F932F933F934F935F936F937F9305
:100B20008F939F93AF93BF93CF93DF93EF93FF93F5
:100B3000A0916305B09164050DB60D920EB60D92AD
:100B40000E94E50781110E945809A0916305B091A8
:100B50006405CD91CDBFDD91DEBFFF91EF91DF91B7
:100B6000CF91BF91AF919F918F917F916F915F9145
:100B70004F913F912F911F910F91FF90EF90DF9038
:100B8000CF90BF90AF909F908F907F906F905F902D
:100B90004F903F902F901F900F900FBE0F90089591
:100BA0000E947405189581B3806281BB8FB58068FF
:100BB0008FBD8FB581608FBD8FB582608FBD8FB5C2
:100BC00088608FBD8EB581608EBD0895682F70E0FE
:100BD00080E090E00E94E40924E13EEA43E251E42F
:100BE0000E94480A0E94B3097BBD6ABD0895E09146
:100BF000FE04F091FF048081811107C08FEF9FEF09
:100C00009093DF048093DE040895E091FE04F09158
:100C1000FF040580F681E02D0680F781E02D8281BA
:100C200093819093DF048093DE040895CF93DF9344
:100C3000EC018F89988D0E94F800CE010E94F80087
:100C4000DF91CF9108956F927F928F929F92AF9292
:100C5000BF92CF92DF92EF920F931F93CF93DF93C8
:100C6000CDB7DEB74C01F5018789908D2150310950
:100C70003C01620E731E20E00FC0822F90E0FB014A
:100C8000E80FF91F3081D501A80FB91F59963C9381
:100C90008081882319F02F5F283078F3F50110A2A6
:100CA000F8E0FE1518F46894EE24E3F8F501E68AFE
:100CB000E1A212A2C50102960E94C002C5010C96D3
:100CC0000E94C002F501B186A08689E090E08E19ED
:100CD000910995878487B38AA28A13A214A215A2C8
:100CE00016A217A2A801B401C3010E948004F50155
:100CF00091838083C114D10419F0F601B182A082DE
:100D0000DF91CF911F910F91EF90DF90CF90BF9027
:100D1000AF909F908F907F906F900895CF93C0E099
:100D200010C08C2F90E09C01220F331F220F331F25
:100D3000220F331F820F931F8E5E9A4F0E94B202C2
:100D4000CF5FC93070F389E095E00E94B20280E085
:100D500095E00E94B20283EF94E00E94B2028AEE14
:100D600094E00E94B20289E095E09093FF048093A2
:100D7000FE0480E095E09093FD048093FC04CF9105
:100D80000895CF93DF93EC010FB6F8940F92809102
:100D9000E8048F5F8093E804809163059091640577
:100DA000892B59F4D0936405C09363058091E804BE
:100DB000813099F40E948E0610C08091E404811164
:100DC0000CC0E0916305F091640596898E898917BE
:100DD00020F0D0936405C09363058091E0048F5F99
:100DE0008093E0048E899091E504981710F4809325
:100DF000E50490E09C01220F331F220F331F220FC6
:100E0000331F820F931FBE016E5F7F4F8E5E9A4F1E
:100E10000E94C4020F900FBE8091E404882351F019
:100E2000E0916305F091640596898E89981710F416
:100E30000E941B05DF91CF9108950F931F93CF93CD
:100E4000DF93EC010091E6041091E70480916305C3
:100E50009091640502960E941603C00FD11FE09185
:100E60006305F0916405D383C283C017D10768F48A
:100E700060916305709164058091FC049091FD047C
:100E80006E5F7F4F0E94E50217C06091630570910D
:100E900064058091FE049091FF046E5F7F4F0E9475
:100EA000E5028091DE049091DF04C817D90720F491
:100EB000D093DF04C093DE04DF91CF911F910F9197
:100EC00008952F923F924F925F926F927F928F92EE
:100ED0009F92AF92BF92CF92DF92EF92FF920F93C9
:100EE0001F93CF93DF933C011B015A012901CA01D3
:100EF0000E947C006C01892B71F088E290E00E94D6
:100F00007C00EC01892B19F0D88ECF8A06C0C6016F
:100F10000E94F80002C0C0E0D0E0209791F0950157
:100F200040E050E0812C912C5E016701E02E8201AF
:100F3000B101C3010E942306CE010E94C10681E0D7
:100F400001C08FEFDF91CF911F910F91FF90EF9034
:100F5000DF90CF90BF90AF909F908F907F906F90D9
:100F60005F904F903F902F900895EF92FF920F93D4
:100F70000F2EFCEDEF2EF4E0FF2EF02D00E020E030
:100F800030E040E550E064EE70E085E599E00E94D5
:100F90006107813081F4F8948FEF9FEF9093DF0425
:100FA0008093DE0481E08093E4041092E7041092C1
:100FB000E6040E94EC040F91FF90EF900895809159
:100FC000DB048F5F8093DB040895DF92EF92FF9242
:100FD0000F931F93CF93DF938091DB04811197C010
:100FE000E090E604F090E7048FEFE81AF80AF09238
:100FF000E704E092E604E114F104B9F48091FE0400
:101000009091FF042091FC043091FD043093FF0483
:101010002093FE049093FD048093FC048091E104EE
:101020008F5F8093E1040E94F7058091DE04909128
:10103000DF04E816F90628F4D12C53C0DD24D3943C
:1010400001C0D12CE091FE04F091FF048081811158
:1010500007C08FEF9FEF9093DF048093DE0441C0C1
:10106000E091FE04F091FF040580F681E02DC68139
:10107000D7818A819B81E816F90628F49093DF04D2
:101080008093DE042EC08E010E5F1F4FC8010E94A8
:1010900016038C899D89892B21F0CE010C960E9424
:1010A00016038E899091E504981710F48093E50457
:1010B00090E09C01220F331F220F331F220F331F9A
:1010C000820F931FB8018E5E9A4F0E94C4029E89C0
:1010D000E0916305F09164058689981708F0AECF1A
:1010E000B1CFE0916305F0916405868990E0FC0141
:1010F000EE0FFF1FEE0FFF1FEE0FFF1F8E0F9F1F44
:10110000FC01EE5EFA4F8081823040F409C080918C
:10111000E3048F5F8093E304D12C02C0DD24D394D9
:101120008091E204882311F0DD24D3948D2DDF918A
:10113000CF911F910F91FF90EF90DF9008950F9343
:101140001F93CF93DF930FB6F8940F928091DB0437
:1011500081508093DB048091DB04811158C0809121
:10116000E804811133C056C0E091F804F091F9040D
:10117000C681D781CE010C960E9416038E010E5FA8
:101180001F4FC8010E9416038E899091E50498179D
:1011900010F48093E50490E09C01220F331F220F8E
:1011A000331F220F331F820F931FB8018E5E9A4F99
:1011B0000E94C4029E89E0916305F09164058689CE
:1011C000981730F081E08093E20402C0C0E0D0E0E4
:1011D0008091F3048111C8CFCD2B11F00E94F70547
:1011E000C091E304CC2359F00E94E507882319F04D
:1011F00081E08093E204C150B9F71092E30480913A
:10120000E204882331F00E941B0581E003C080E0E6
:1012100001C080E00F900FBEDF91CF911F910F9121
:101220000895CF93DF93EC01892B49F00E94DF07EB
:1012300060E0CE010E941D070E949F0801C080E06F
:10124000811102C00E941B05DF91CF910895CF93B9
:10125000DF9324C00E94DF07C091EA040E949F0828
:10126000CC23E1F00FB6F8940F92E091EF04F091E7
:10127000F004C681D781CE0102960E9416038091A8
:10128000E80481508093E8048091E90481508093C0
:10129000E9040F900FBECE010E9416068091E9046A
:1012A0008111D8CFDF91CF9108950E942709FDCFFA
:1012B0008091DB04882321F081E08093E20408958B
:1012C0001092E2042091E50401C02150822F90E0A9
:1012D000FC01EE0FFF1FEE0FFF1FEE0FFF1FE80FC9
:1012E000F91FEE5EFA4F3081332379F3AC01440FDE
:1012F000551F440F551F440F551F480F591FDF013D
:101300000180F281E02D0280F381E02D1296FC93A2
:10131000EE9311974B5E5A4FE417F50729F442817B
:101320005381FD0152834183FC01EE0FFF1FEE0F3D
:10133000FF1FEE0FFF1F8E0F9F1FFC01EE5EFA4F87
:101340000180F281E02D86819781909364058093DE
:1013500063052093E50408950E94B3096894B111D0
:101360000C94420A08950E94270A88F09F5798F02B
:10137000B92F9927B751B0F0E1F0660F771F881F9A
:10138000991F1AF0BA95C9F714C0B13091F00E94B4
:10139000410AB1E008950C94410A672F782F8827FD
:1013A000B85F39F0B93FCCF3869577956795B395DB
:1013B000D9F73EF490958095709561957F4F8F4F4A
:1013C0009F4F0895E89409C097FB3EF4909580954F
:1013D000709561957F4F8F4F9F4F9923A9F0F92FFB
:1013E00096E9BB279395F695879577956795B79579
:1013F000F111F8CFFAF4BB0F11F460FF1BC06F5F5F
:101400007F4F8F4F9F4F16C0882311F096E911C070
:10141000772321F09EE8872F762F05C0662371F091
:1014200096E8862F70E060E02AF09A95660F771FA5
:10143000881FDAF7880F9695879597F9089557FDD5
:101440009058440F551F59F05F3F71F04795880F32
:1014500097FB991F61F09F3F79F0879508951216C9
:1014600013061406551FF2CF4695F1DF08C0161675
:1014700017061806991FF1CF869571056105089426
:101480000895E894BB2766277727CB0197F908953D
:101490000E945B0A0C94CC0A0E94BE0A38F00E949B
:1014A000C50A20F0952311F00C94B50A0C94BB0AE0
:1014B00011240C94420A0E941F0A70F3959FC1F3F5
:1014C000950F50E0551F629FF001729FBB27F00DF2
:1014D000B11D639FAA27F00DB11DAA1F649F662747
:1014E000B00DA11D661F829F2227B00DA11D621F96
:1014F000739FB00DA11D621F839FA00D611D221F50
:10150000749F3327A00D611D231F849F600D211D33
:10151000822F762F6A2F11249F5750409AF0F1F0B6
:1015200088234AF0EE0FFF1FBB1F661F771F881F1F
:1015300091505040A9F79E3F510580F00C94B50A98
:101540000C94420A5F3FE4F3983ED4F38695779576
:101550006795B795F795E7959F5FC1F7FE2B880FC5
:10156000911D9695879597F9089597F99F6780E85B
:1015700070E060E008959FEF80EC089500240A94E5
:101580001616170618060906089500240A9412165E
:101590001306140605060895092E0394000C11F491
:1015A000882352F0BB0F40F4BF2B11F460FF04C03E
:1015B0006F5F7F4F8F4F9F4F0895052E97FB1EF44F
:1015C00000940E94F40A57FD07D00E94FC0A07FC11
:1015D00003D04EF40C94F40A509540953095219523
:1015E0003F4F4F4F5F4F089590958095709561954F
:1015F0007F4F8F4F9F4F0895A1E21A2EAA1BBB1B4E
:10160000FD010DC0AA1FBB1FEE1FFF1FA217B307CE
:10161000E407F50720F0A21BB30BE40BF50B661FE4
:10162000771F881F991F1A9469F7609570958095A8
:1016300090959B01AC01BD01CF010895F894FFCFB7
:10164000E7032020202020202020202020202020F0
:10165000202020200054656D70657261747572657C
:10166000203D200049742773205261696E696E67BE
:101670000057696E646F77732061726520636C6FC9
:1016800073696E67004C44525F53656E736F7200EE
:1016900054656D706572747572655F53656E736FB6
:1016A00072005049525F53656E736F7200526169E8
:1016B0006E5F53656E736F72004741535F53656E83
:0A16C000736F720049444C450000AE
:00000001FF
