S0120000456E7465725F686F6D652E737265630C
S11300000C942A000C9447000C9447000C9447006D
S11300100C9447000C9447000C9447000C94470040
S11300200C9447000C9447000C9447000C94470030
S11300300C9447000C9447000C9447000C94470020
S11300400C9447000C9447000C9447000C94470010
S11300500C94470011241FBECFE5D8E0DEBFCDBF0E
S113006010E0A0E6B0E0E8E1FBE002C005900D92EC
S1130070A63FB107D9F721E0A6EFB0E001C01D9279
S1130080A330B207E1F70E940B020C948A050C948A
S11300900000E199FECF9FBB8EBB6DBB8CB3846027
S11300A08CBB8CB382608CBB0895E199FECF9FBB5F
S11300B08EBB8CB381608CBB8DB3089580EF87BBFE
S11300C08FEF88BB089588B38F7E88BB88B3806226
S11300D088BB88B3806488BB88B3806888BBB09BC6
S11300E05CC0B19B5CC0B29B5CC0B39B5CC08FE145
S11300F09EE40197F1F700C0000088B3806188BBDB
S113010088B38F7D88BB88B3806488BB88B38068DC
S113011088BBB09B4AC0B19B4AC0B29B4AC0B39B48
S11301204AC08FE19EE40197F1F700C0000088B354
S1130130806188BB88B3806288BB88B38F7B88BBAF
S113014088B3806888BBB09B38C0B19B38C0B29B71
S113015038C0B39B38C08FE19EE40197F1F700C02B
S1130160000088B3806188BB88B3806288BB88B391
S1130170806488BB88B38F7788BBB09B26C0B19B53
S113018026C0B29B26C0B39B26C08FE19EE4019794
S1130190F1F700C000008FEF089587E3089588E326
S11301A0089589E308958FE2089584E3089585E32B
S11301B0089586E308958AE2089581E3089582E329
S11301C0089583E308958DE2089583E6089580E316
S11301D008958DE308958BE2089595B3946095BBDB
S11301E0882324F495B3906895BB03C095B39F7797
S11301F095BB86FF04C095B3906495BB03C095B3CB
S11302009F7B95BB85FF04C095B3906295BB03C0EB
S113021095B39F7D95BB84FF04C095B3906195BB56
S113022003C095B39F7E95BB95B3986095BBEFE9EA
S1130230FFE03197F1F700C0000095B3977F95BBBD
S1130240EFE9FFE03197F1F700C0000083FF04C03D
S113025095B3906895BB03C095B39F7795BB82FF18
S113026004C095B3906495BB03C095B39F7B95BBC5
S113027081FF04C095B3906295BB03C095B39F7D85
S113028095BB80FF04C085B3806185BB03C085B383
S11302908F7E85BB85B3886085BB8FE99FE001971E
S11302A0F1F700C0000085B3877F85BBEFE9FFE06D
S11302B03197F1F700C000000895CF93DF93EC016C
S11302C003C00E94ED00219688818111FACFDF914D
S11302D0CF91089595B39B7F95BB882324F495B360
S11302E0906895BB03C095B39F7795BB86FF04C008
S11302F095B3906495BB03C095B39F7B95BB85FF75
S113030004C095B3906295BB03C095B39F7D95BB24
S113031084FF04C095B3906195BB03C095B39F7EE1
S113032095BB95B3986095BBEFE9FFE03197F1F782
S113033000C0000095B3977F95BBEFE9FFE03197CC
S1130340F1F700C0000083FF04C095B3906895BB2B
S113035003C095B39F7795BB82FF04C095B39064A7
S113036095BB03C095B39F7B95BB81FF04C095B338
S1130370906295BB03C095B39F7D95BB80FF04C07D
S113038085B3806185BB03C085B38F7E85BB85B390
S1130390886085BB8FE99FE00197F1F700C00000FA
S11303A085B3877F85BBEFE9FFE03197F1F700C0A4
S11303B00000089584B38C6F84BB83E00E946A01BB
S11303C08FE79EE30197F1F700C0000083E00E94ED
S11303D06A018FE79EE30197F1F700C0000083E014
S11303E00E946A0182E00E946A0188E20E946A0116
S11303F081E00E946A0186E00E946A018CE00E940A
S11304006A019FEF29EF80E0915020408040E1F79E
S113041000C0000008950E945E000E94DA010E945C
S11304202E0284B3826084BB80E80E946A0181E664
S113043090E00E945D0180EC0E946A0182E790E0F6
S11304400E945D010E949202813319F40E94A90264
S1130450EBCF823349F70E946903E6CF81B3806210
S113046081BB8FB580688FBD8FB581608FBD8FB51F
S113047082608FBD8FB588608FBD8EB581608EBD63
S11304800895682F70E080E090E00E94910424E1D8
S11304903EEA43E251E40E94F5040E9460047BBDFD
S11304A06ABD089581B3816081BB81B3826081BBE1
S11304B082B3816082BB82B38D7F82BB8AE50E9456
S11304C041022FEF85EA9EE0215080409040E1F701
S11304D000C0000080E00E9441022FEF83EC99E00D
S11304E0215080409040E1F700C0000081B381605A
S11304F081BB81B3826081BB82B3826082BB82B3E1
S11305008E7F82BB8AE50E9441022FEF85EA9EE03E
S1130510215080409040E1F700C0000080E00E943C
S113052041020895CF930E946300C82F8F3FD9F3EF
S1130530833629F484E890E00E945D0103C08AE2D6
S11305400E94ED000E9463008F3FE1F78C2FCF9152
S11305500895FF920F931F93CF93DF9381E00E943E
S11305606A0180E80E946A0183E690E00E945D01CE
S11305702FEF87EE93E0215080409040E1F700C0D8
S1130580000081E00E946A010E94920280930201AD
S1130590109201010CC091E09E0F90930101F0E0D4
S11305A0E950FF4F80830E94920280930201809160
S11305B00201833621F0E0910101EA3060F38AE020
S11305C090E00E94550000910101801322C081E057
S11305D08093600010E0C0E0D0E00FC0015011092A
S11305E0F801E950FF4FF080CE010E945500F81643
S11305F019F01092600009C021968AE090E00E94F0
S1130600550090E0C817D9074CF380916000813001
S113061019F0C0E0D0E046C081E00E946A0187E89A
S113062090E00E945D012FEF83EC99E0215080401F
S11306309040E1F700C0000046C08AE090E00E94CC
S1130640550090910101891309C0FE01E950FF4F43
S11306501081CE010E945500181719F181E00E9403
S11306606A018091F6008F5F8093F60083E990E041
S11306700E945D018091F600833009F06FCF1092E3
S1130680F60085B3826085BB2FEF83EC99E021509F
S113069080409040E1F700C0000085B38D7F85BBAA
S11306A05DCF21968091010190E0C817D9072CF203
S11306B01092F60081E00E946A0182EA90E00E94B2
S11306C05D010E945202DF91CF911F910F91FF9023
S11306D008951F93CF93DF9381E00E946A0180E81D
S11306E00E946A018FEA90E00E945D012FEF87EE7D
S11306F093E0215080409040E1F700C0000081E089
S11307000E946A010E9492028093020110920101E8
S11307100CC091E09E0F90930101F0E0E950FF4F6F
S113072080830E94920280930201809102018336A9
S1130730E9F1E0910101EA3060F3C0E0D0E038C0B3
S11307408AE090E00E94550090910101891309C04C
S1130750FE01E950FF4F1081CE010E945500181789
S113076019F181E00E946A018091F6008F5F809305
S1130770F60083E990E00E945D018091F6008330E9
S113078009F0AACF1092F60085B3826085BB2FEFE3
S113079082E597E0215080409040E1F700C00000DE
S11307A085B38D7F85BB88C0219602C0C0E0D0E0B0
S11307B08091010190E0C817D90714F21092F60055
S11307C081E00E946A0182EC90E00E945D012FEFBB
S11307D087EE93E0215080409040E1F700C0000094
S11307E081E00E946A010E949202809302011092A9
S11307F001010CC091E09E0F90930101F0E0E950DB
S1130800FF4F80830E949202809302018091020133
S1130810833621F0E0910101EA3060F38336D9F5A3
S1130820809101018430C0F480E80E946A0185ED62
S113083090E00E945D0180EC0E946A018EED90E0E0
S11308400E945D012FEF87EE93E02150804090409D
S1130850E1F700C00000B4CF81E00E946A0188EE95
S113086090E00E945D01609101018AE090E00E94A5
S11308704900C0E0D0E008C0FE01E950FF4F6081AC
S1130880CE010E94490021968091010190E0C81791
S1130890D90794F311C081E00E946A018DEE90E0C3
S11308A00E945D012FEF87EE93E02150804090403D
S11308B0E1F700C0000084CFDF91CF911F9108952C
S11308C00E94D40488F09F5798F0B92F9927B75104
S11308D0B0F0E1F0660F771F881F991F1AF0BA95E0
S11308E0C9F714C0B13091F00E94EE04B1E008954C
S11308F00C94EE04672F782F8827B85F39F0B93F3E
S1130900CCF3869577956795B395D9F73EF4909592
S11309108095709561957F4F8F4F9F4F0895E89410
S113092009C097FB3EF490958095709561957F4F33
S11309308F4F9F4F9923A9F0F92F96E9BB279395E1
S1130940F695879577956795B795F111F8CFFAF4F1
S1130950BB0F11F460FF1BC06F5F7F4F8F4F9F4F22
S113096016C0882311F096E911C0772321F09EE880
S1130970872F762F05C0662371F096E8862F70E0E6
S113098060E02AF09A95660F771F881FDAF7880FC0
S11309909695879597F9089557FD9058440F551FDC
S11309A059F05F3F71F04795880F97FB991F61F0ED
S11309B09F3F79F087950895121613061406551F64
S11309C0F2CF4695F1DF08C0161617061806991FD0
S11309D0F1CF86957105610508940895E894BB27C5
S11309E066277727CB0197F908950E9408050C9490
S11309F079050E946B0538F00E94720520F095235A
S1130A0011F00C9462050C94680511240C94EF0405
S1130A100E94CC0470F3959FC1F3950F50E0551FCD
S1130A20629FF001729FBB27F00DB11D639FAA273F
S1130A30F00DB11DAA1F649F6627B00DA11D661F8E
S1130A40829F2227B00DA11D621F739FB00DA11DAF
S1130A50621F839FA00D611D221F749F3327A00D69
S1130A60611D231F849F600D211D822F762F6A2F05
S1130A7011249F5750409AF0F1F088234AF0EE0F6A
S1130A80FF1FBB1F661F771F881F91505040A9F797
S1130A909E3F510580F00C9462050C94EF045F3F77
S1130AA0E4F3983ED4F3869577956795B795F795D3
S1130AB0E7959F5FC1F7FE2B880F911D969587954B
S1130AC097F9089597F99F6780E870E060E00895CA
S1130AD09FEF80EC089500240A9416161706180652
S1130AE00906089500240A9412161306140605062E
S1130AF00895092E0394000C11F4882352F0BB0FBF
S1130B0040F4BF2B11F460FF04C06F5F7F4F8F4F21
S10B0B109F4F0895F894FFCFF4
S1130B1801313D456E7465722050617373776F724D
S1130B286400323D4368616E676520506173737772
S1130B386F7264004F4B0043616C6C696E672031BF
S1130B4832320057726F6E672050617373776F7219
S1130B58640057656C636F6D65204261636B004583
S1130B686E746572204F6C642050617373776F7272
S1130B786400456E746572204E6577205061737306
S1130B88776F726400746F6F207765616B0074729D
S1130B987920616761696E00446F6E6500746F6FD8
S1090BA8206C6F6E670073
S9030000FC
